{
  "address": "0x1a9670f0E41398923A4Ca753057380553d73C8f3",
  "abi": [
    {
      "inputs": [],
      "stateMutability": "nonpayable",
      "type": "constructor"
    },
    {
      "anonymous": false,
      "inputs": [
        {
          "indexed": true,
          "internalType": "address",
          "name": "owner",
          "type": "address"
        },
        {
          "indexed": true,
          "internalType": "address",
          "name": "approved",
          "type": "address"
        },
        {
          "indexed": true,
          "internalType": "uint256",
          "name": "tokenId",
          "type": "uint256"
        }
      ],
      "name": "Approval",
      "type": "event"
    },
    {
      "anonymous": false,
      "inputs": [
        {
          "indexed": true,
          "internalType": "address",
          "name": "owner",
          "type": "address"
        },
        {
          "indexed": true,
          "internalType": "address",
          "name": "operator",
          "type": "address"
        },
        {
          "indexed": false,
          "internalType": "bool",
          "name": "approved",
          "type": "bool"
        }
      ],
      "name": "ApprovalForAll",
      "type": "event"
    },
    {
      "anonymous": false,
      "inputs": [
        {
          "indexed": false,
          "internalType": "uint256",
          "name": "_fromTokenId",
          "type": "uint256"
        },
        {
          "indexed": false,
          "internalType": "uint256",
          "name": "_toTokenId",
          "type": "uint256"
        }
      ],
      "name": "BatchMetadataUpdate",
      "type": "event"
    },
    {
      "anonymous": false,
      "inputs": [
        {
          "indexed": false,
          "internalType": "uint256",
          "name": "_tokenId",
          "type": "uint256"
        }
      ],
      "name": "MetadataUpdate",
      "type": "event"
    },
    {
      "anonymous": false,
      "inputs": [
        {
          "indexed": true,
          "internalType": "address",
          "name": "previousOwner",
          "type": "address"
        },
        {
          "indexed": true,
          "internalType": "address",
          "name": "newOwner",
          "type": "address"
        }
      ],
      "name": "OwnershipTransferred",
      "type": "event"
    },
    {
      "anonymous": false,
      "inputs": [
        {
          "indexed": true,
          "internalType": "address",
          "name": "from",
          "type": "address"
        },
        {
          "indexed": true,
          "internalType": "address",
          "name": "to",
          "type": "address"
        },
        {
          "indexed": true,
          "internalType": "uint256",
          "name": "tokenId",
          "type": "uint256"
        }
      ],
      "name": "Transfer",
      "type": "event"
    },
    {
      "inputs": [
        {
          "internalType": "address",
          "name": "to",
          "type": "address"
        },
        {
          "internalType": "uint256",
          "name": "tokenId",
          "type": "uint256"
        }
      ],
      "name": "approve",
      "outputs": [],
      "stateMutability": "nonpayable",
      "type": "function"
    },
    {
      "inputs": [
        {
          "internalType": "address",
          "name": "owner",
          "type": "address"
        }
      ],
      "name": "balanceOf",
      "outputs": [
        {
          "internalType": "uint256",
          "name": "",
          "type": "uint256"
        }
      ],
      "stateMutability": "view",
      "type": "function"
    },
    {
      "inputs": [],
      "name": "contractURI",
      "outputs": [
        {
          "internalType": "string",
          "name": "",
          "type": "string"
        }
      ],
      "stateMutability": "view",
      "type": "function"
    },
    {
      "inputs": [
        {
          "internalType": "uint256",
          "name": "tokenId",
          "type": "uint256"
        }
      ],
      "name": "getApproved",
      "outputs": [
        {
          "internalType": "address",
          "name": "",
          "type": "address"
        }
      ],
      "stateMutability": "view",
      "type": "function"
    },
    {
      "inputs": [
        {
          "internalType": "address",
          "name": "owner",
          "type": "address"
        },
        {
          "internalType": "address",
          "name": "operator",
          "type": "address"
        }
      ],
      "name": "isApprovedForAll",
      "outputs": [
        {
          "internalType": "bool",
          "name": "",
          "type": "bool"
        }
      ],
      "stateMutability": "view",
      "type": "function"
    },
    {
      "inputs": [],
      "name": "name",
      "outputs": [
        {
          "internalType": "string",
          "name": "",
          "type": "string"
        }
      ],
      "stateMutability": "view",
      "type": "function"
    },
    {
      "inputs": [],
      "name": "owner",
      "outputs": [
        {
          "internalType": "address",
          "name": "",
          "type": "address"
        }
      ],
      "stateMutability": "view",
      "type": "function"
    },
    {
      "inputs": [
        {
          "internalType": "uint256",
          "name": "tokenId",
          "type": "uint256"
        }
      ],
      "name": "ownerOf",
      "outputs": [
        {
          "internalType": "address",
          "name": "",
          "type": "address"
        }
      ],
      "stateMutability": "view",
      "type": "function"
    },
    {
      "inputs": [
        {
          "internalType": "address",
          "name": "to",
          "type": "address"
        },
        {
          "internalType": "string",
          "name": "tokenUri",
          "type": "string"
        }
      ],
      "name": "paint",
      "outputs": [],
      "stateMutability": "nonpayable",
      "type": "function"
    },
    {
      "inputs": [
        {
          "internalType": "uint256",
          "name": "tokenId",
          "type": "uint256"
        }
      ],
      "name": "remove",
      "outputs": [],
      "stateMutability": "nonpayable",
      "type": "function"
    },
    {
      "inputs": [],
      "name": "renounceOwnership",
      "outputs": [],
      "stateMutability": "nonpayable",
      "type": "function"
    },
    {
      "inputs": [
        {
          "internalType": "address",
          "name": "from",
          "type": "address"
        },
        {
          "internalType": "address",
          "name": "to",
          "type": "address"
        },
        {
          "internalType": "uint256",
          "name": "tokenId",
          "type": "uint256"
        }
      ],
      "name": "safeTransferFrom",
      "outputs": [],
      "stateMutability": "nonpayable",
      "type": "function"
    },
    {
      "inputs": [
        {
          "internalType": "address",
          "name": "from",
          "type": "address"
        },
        {
          "internalType": "address",
          "name": "to",
          "type": "address"
        },
        {
          "internalType": "uint256",
          "name": "tokenId",
          "type": "uint256"
        },
        {
          "internalType": "bytes",
          "name": "data",
          "type": "bytes"
        }
      ],
      "name": "safeTransferFrom",
      "outputs": [],
      "stateMutability": "nonpayable",
      "type": "function"
    },
    {
      "inputs": [
        {
          "internalType": "address",
          "name": "operator",
          "type": "address"
        },
        {
          "internalType": "bool",
          "name": "approved",
          "type": "bool"
        }
      ],
      "name": "setApprovalForAll",
      "outputs": [],
      "stateMutability": "nonpayable",
      "type": "function"
    },
    {
      "inputs": [
        {
          "internalType": "bytes4",
          "name": "interfaceId",
          "type": "bytes4"
        }
      ],
      "name": "supportsInterface",
      "outputs": [
        {
          "internalType": "bool",
          "name": "",
          "type": "bool"
        }
      ],
      "stateMutability": "view",
      "type": "function"
    },
    {
      "inputs": [],
      "name": "symbol",
      "outputs": [
        {
          "internalType": "string",
          "name": "",
          "type": "string"
        }
      ],
      "stateMutability": "view",
      "type": "function"
    },
    {
      "inputs": [
        {
          "internalType": "uint256",
          "name": "tokenId",
          "type": "uint256"
        }
      ],
      "name": "tokenURI",
      "outputs": [
        {
          "internalType": "string",
          "name": "",
          "type": "string"
        }
      ],
      "stateMutability": "view",
      "type": "function"
    },
    {
      "inputs": [
        {
          "internalType": "address",
          "name": "from",
          "type": "address"
        },
        {
          "internalType": "address",
          "name": "to",
          "type": "address"
        },
        {
          "internalType": "uint256",
          "name": "tokenId",
          "type": "uint256"
        }
      ],
      "name": "transferFrom",
      "outputs": [],
      "stateMutability": "nonpayable",
      "type": "function"
    },
    {
      "inputs": [
        {
          "internalType": "address",
          "name": "newOwner",
          "type": "address"
        }
      ],
      "name": "transferOwnership",
      "outputs": [],
      "stateMutability": "nonpayable",
      "type": "function"
    }
  ],
  "transactionHash": "0x7315ad5e5e17d88db4c4896a2d366b74b40980f0b079751c7c5dd3bc451d9f30",
  "args": [],
  "numDeployments": 2,
  "solcInputHash": "2abeebe1580331d62b389a81afcf616d",
  "bytecode": "0x608060405234801562000010575f80fd5b50604051806060016040528060238152602001620020ed602391396040805180820190915260058152644e4d42323360d81b60208201525f6200005483826200017b565b5060016200006382826200017b565b505050620000806200007a6200008660201b60201c565b6200008a565b62000243565b3390565b600780546001600160a01b038381166001600160a01b0319831681179093556040519116919082907f8be0079c531659141344cd1fd0a4f28419497f9722a3daafe3b4186f6b6457e0905f90a35050565b634e487b7160e01b5f52604160045260245ffd5b600181811c908216806200010457607f821691505b6020821081036200012357634e487b7160e01b5f52602260045260245ffd5b50919050565b601f82111562000176575f81815260208120601f850160051c81016020861015620001515750805b601f850160051c820191505b8181101562000172578281556001016200015d565b5050505b505050565b81516001600160401b03811115620001975762000197620000db565b620001af81620001a88454620000ef565b8462000129565b602080601f831160018114620001e5575f8415620001cd5750858301515b5f19600386901b1c1916600185901b17855562000172565b5f85815260208120601f198616915b828110156200021557888601518255948401946001909101908401620001f4565b50858210156200023357878501515f19600388901b60f8161c191681555b5050505050600190811b01905550565b611e9c80620002515f395ff3fe608060405234801561000f575f80fd5b506004361061011c575f3560e01c8063715018a6116100a9578063c87b56dd1161006e578063c87b56dd14610251578063e8a3d48514610264578063e985e9c51461026c578063f2fde38b1461027f578063f807d10d14610292575f80fd5b8063715018a61461020a5780638da5cb5b1461021257806395d89b4114610223578063a22cb4651461022b578063b88d4fde1461023e575f80fd5b806323b872dd116100ef57806323b872dd1461019d57806342842e0e146101b05780634cc82215146101c35780636352211e146101d657806370a08231146101e9575f80fd5b806301ffc9a71461012057806306fdde0314610148578063081812fc1461015d578063095ea7b314610188575b5f80fd5b61013361012e3660046115ef565b6102a5565b60405190151581526020015b60405180910390f35b6101506102cf565b60405161013f9190611657565b61017061016b366004611669565b61035e565b6040516001600160a01b03909116815260200161013f565b61019b61019636600461169b565b610383565b005b61019b6101ab3660046116c3565b61049c565b61019b6101be3660046116c3565b6104cd565b61019b6101d1366004611669565b6104e7565b6101706101e4366004611669565b61055e565b6101fc6101f73660046116fc565b6105bd565b60405190815260200161013f565b61019b610641565b6007546001600160a01b0316610170565b610150610654565b61019b610239366004611715565b610663565b61019b61024c3660046117d5565b610672565b61015061025f366004611669565b6106aa565b6101506107b4565b61013361027a36600461184c565b610800565b61019b61028d3660046116fc565b61082d565b61019b6102a036600461187d565b6108a3565b5f6001600160e01b03198216632483248360e11b14806102c957506102c9826108d9565b92915050565b60605f80546102dd906118db565b80601f0160208091040260200160405190810160405280929190818152602001828054610309906118db565b80156103545780601f1061032b57610100808354040283529160200191610354565b820191905f5260205f20905b81548152906001019060200180831161033757829003601f168201915b5050505050905090565b5f61036882610928565b505f908152600460205260409020546001600160a01b031690565b5f61038d8261055e565b9050806001600160a01b0316836001600160a01b0316036103ff5760405162461bcd60e51b815260206004820152602160248201527f4552433732313a20617070726f76616c20746f2063757272656e74206f776e656044820152603960f91b60648201526084015b60405180910390fd5b336001600160a01b038216148061041b575061041b8133610800565b61048d5760405162461bcd60e51b815260206004820152603d60248201527f4552433732313a20617070726f76652063616c6c6572206973206e6f7420746f60448201527f6b656e206f776e6572206f7220617070726f76656420666f7220616c6c00000060648201526084016103f6565b6104978383610986565b505050565b6104a633826109f3565b6104c25760405162461bcd60e51b81526004016103f690611913565b610497838383610a50565b61049783838360405180602001604052805f815250610672565b336104f18261055e565b6001600160a01b0316146105525760405162461bcd60e51b815260206004820152602260248201527f4f6e6c7920746865206f776e65722063616e2072656d6f766520677261666669604482015261746960f01b60648201526084016103f6565b61055b81610bbf565b50565b5f818152600260205260408120546001600160a01b0316806102c95760405162461bcd60e51b8152602060048201526018602482015277115490cdcc8c4e881a5b9d985b1a59081d1bdad95b88125160421b60448201526064016103f6565b5f6001600160a01b0382166106265760405162461bcd60e51b815260206004820152602960248201527f4552433732313a2061646472657373207a65726f206973206e6f7420612076616044820152683634b21037bbb732b960b91b60648201526084016103f6565b506001600160a01b03165f9081526003602052604090205490565b610649610bfd565b6106525f610c57565b565b6060600180546102dd906118db565b61066e338383610ca8565b5050565b61067c33836109f3565b6106985760405162461bcd60e51b81526004016103f690611913565b6106a484848484610d75565b50505050565b60606106b582610928565b5f82815260066020526040812080546106cd906118db565b80601f01602080910402602001604051908101604052809291908181526020018280546106f9906118db565b80156107445780601f1061071b57610100808354040283529160200191610744565b820191905f5260205f20905b81548152906001019060200180831161072757829003601f168201915b505050505090505f61076060408051602081019091525f815290565b905080515f03610771575092915050565b8151156107a357808260405160200161078b929190611960565b60405160208183030381529060405292505050919050565b6107ac84610da8565b949350505050565b60606107dc6040516020016107c89061198e565b604051602081830303815290604052610e18565b6040516020016107ec9190611b8e565b604051602081830303815290604052905090565b6001600160a01b039182165f90815260056020908152604080832093909416825291909152205460ff1690565b610835610bfd565b6001600160a01b03811661089a5760405162461bcd60e51b815260206004820152602660248201527f4f776e61626c653a206e6577206f776e657220697320746865207a65726f206160448201526564647265737360d01b60648201526084016103f6565b61055b81610c57565b6108ab610bfd565b5f6108b560085490565b90506108c5600880546001019055565b6108cf8382610f67565b6104978183610f80565b5f6001600160e01b031982166380ac58cd60e01b148061090957506001600160e01b03198216635b5e139f60e01b145b806102c957506301ffc9a760e01b6001600160e01b03198316146102c9565b5f818152600260205260409020546001600160a01b031661055b5760405162461bcd60e51b8152602060048201526018602482015277115490cdcc8c4e881a5b9d985b1a59081d1bdad95b88125160421b60448201526064016103f6565b5f81815260046020526040902080546001600160a01b0319166001600160a01b03841690811790915581906109ba8261055e565b6001600160a01b03167f8c5be1e5ebec7d5bd14f71427d1e84f3dd0314c0f7b2291e5b200ac8c7c3b92560405160405180910390a45050565b5f806109fe8361055e565b9050806001600160a01b0316846001600160a01b03161480610a255750610a258185610800565b806107ac5750836001600160a01b0316610a3e8461035e565b6001600160a01b031614949350505050565b826001600160a01b0316610a638261055e565b6001600160a01b031614610a895760405162461bcd60e51b81526004016103f690611bd2565b6001600160a01b038216610aeb5760405162461bcd60e51b8152602060048201526024808201527f4552433732313a207472616e7366657220746f20746865207a65726f206164646044820152637265737360e01b60648201526084016103f6565b610af88383836001611049565b826001600160a01b0316610b0b8261055e565b6001600160a01b031614610b315760405162461bcd60e51b81526004016103f690611bd2565b5f81815260046020908152604080832080546001600160a01b03199081169091556001600160a01b038781168086526003855283862080545f1901905590871680865283862080546001019055868652600290945282852080549092168417909155905184937fddf252ad1be2c89b69c2b068fc378daa952ba7f163c4a11628f55a4df523b3ef91a4505050565b610bc8816110c6565b5f8181526006602052604090208054610be0906118db565b15905061055b575f81815260066020526040812061055b91611590565b6007546001600160a01b031633146106525760405162461bcd60e51b815260206004820181905260248201527f4f776e61626c653a2063616c6c6572206973206e6f7420746865206f776e657260448201526064016103f6565b600780546001600160a01b038381166001600160a01b0319831681179093556040519116919082907f8be0079c531659141344cd1fd0a4f28419497f9722a3daafe3b4186f6b6457e0905f90a35050565b816001600160a01b0316836001600160a01b031603610d095760405162461bcd60e51b815260206004820152601960248201527f4552433732313a20617070726f766520746f2063616c6c65720000000000000060448201526064016103f6565b6001600160a01b038381165f81815260056020908152604080832094871680845294825291829020805460ff191686151590811790915591519182527f17307eab39ab6107e8899845ad3d59bd9653f200f220920489ca2b5937696c31910160405180910390a3505050565b610d80848484610a50565b610d8c84848484611165565b6106a45760405162461bcd60e51b81526004016103f690611c17565b6060610db382610928565b5f610dc860408051602081019091525f815290565b90505f815111610de65760405180602001604052805f815250610e11565b80610df084611262565b604051602001610e01929190611960565b6040516020818303038152906040525b9392505050565b606081515f03610e3557505060408051602081019091525f815290565b5f604051806060016040528060408152602001611e276040913990505f600384516002610e629190611c7d565b610e6c9190611c90565b610e77906004611caf565b67ffffffffffffffff811115610e8f57610e8f61174e565b6040519080825280601f01601f191660200182016040528015610eb9576020820181803683370190505b509050600182016020820185865187015b80821015610f25576003820191508151603f8160121c168501518453600184019350603f81600c1c168501518453600184019350603f8160061c168501518453600184019350603f8116850151845350600183019250610eca565b5050600386510660018114610f415760028114610f5457610f5c565b603d6001830353603d6002830353610f5c565b603d60018303535b509195945050505050565b61066e828260405180602001604052805f8152506112f2565b5f828152600260205260409020546001600160a01b0316610ffa5760405162461bcd60e51b815260206004820152602e60248201527f45524337323155524953746f726167653a2055524920736574206f66206e6f6e60448201526d32bc34b9ba32b73a103a37b5b2b760911b60648201526084016103f6565b5f8281526006602052604090206110118282611d13565b506040518281527ff8e1a15aba9398e019f0b49df1a4fde98ee17ae345cb5f6b5e2c27f5033e8ce79060200160405180910390a15050565b6001600160a01b038416158061106657506001600160a01b038316155b8061107057505f82115b8061107a57505f81115b6106a45760405162461bcd60e51b815260206004820152601d60248201527f4772616666697469206973206e6f6e2d7472616e736665727261626c6500000060448201526064016103f6565b5f6110d08261055e565b90506110df815f846001611049565b6110e88261055e565b5f83815260046020908152604080832080546001600160a01b03199081169091556001600160a01b0385168085526003845282852080545f190190558785526002909352818420805490911690555192935084927fddf252ad1be2c89b69c2b068fc378daa952ba7f163c4a11628f55a4df523b3ef908390a45050565b5f6001600160a01b0384163b1561125757604051630a85bd0160e11b81526001600160a01b0385169063150b7a02906111a8903390899088908890600401611dcf565b6020604051808303815f875af19250505080156111e2575060408051601f3d908101601f191682019092526111df91810190611e0b565b60015b61123d573d80801561120f576040519150601f19603f3d011682016040523d82523d5f602084013e611214565b606091505b5080515f036112355760405162461bcd60e51b81526004016103f690611c17565b805181602001fd5b6001600160e01b031916630a85bd0160e11b1490506107ac565b506001949350505050565b60605f61126e83611324565b60010190505f8167ffffffffffffffff81111561128d5761128d61174e565b6040519080825280601f01601f1916602001820160405280156112b7576020820181803683370190505b5090508181016020015b5f19016f181899199a1a9b1b9c1cb0b131b232b360811b600a86061a8153600a85049450846112c157509392505050565b6112fc83836113fb565b6113085f848484611165565b6104975760405162461bcd60e51b81526004016103f690611c17565b5f8072184f03e93ff9f4daa797ed6e38ed64bf6a1f0160401b83106113625772184f03e93ff9f4daa797ed6e38ed64bf6a1f0160401b830492506040015b6d04ee2d6d415b85acef8100000000831061138e576d04ee2d6d415b85acef8100000000830492506020015b662386f26fc1000083106113ac57662386f26fc10000830492506010015b6305f5e10083106113c4576305f5e100830492506008015b61271083106113d857612710830492506004015b606483106113ea576064830492506002015b600a83106102c95760010192915050565b6001600160a01b0382166114515760405162461bcd60e51b815260206004820181905260248201527f4552433732313a206d696e7420746f20746865207a65726f206164647265737360448201526064016103f6565b5f818152600260205260409020546001600160a01b0316156114b55760405162461bcd60e51b815260206004820152601c60248201527f4552433732313a20746f6b656e20616c7265616479206d696e7465640000000060448201526064016103f6565b6114c25f83836001611049565b5f818152600260205260409020546001600160a01b0316156115265760405162461bcd60e51b815260206004820152601c60248201527f4552433732313a20746f6b656e20616c7265616479206d696e7465640000000060448201526064016103f6565b6001600160a01b0382165f81815260036020908152604080832080546001019055848352600290915280822080546001600160a01b0319168417905551839291907fddf252ad1be2c89b69c2b068fc378daa952ba7f163c4a11628f55a4df523b3ef908290a45050565b50805461159c906118db565b5f825580601f106115ab575050565b601f0160209004905f5260205f209081019061055b91905b808211156115d6575f81556001016115c3565b5090565b6001600160e01b03198116811461055b575f80fd5b5f602082840312156115ff575f80fd5b8135610e11816115da565b5f5b8381101561162457818101518382015260200161160c565b50505f910152565b5f815180845261164381602086016020860161160a565b601f01601f19169290920160200192915050565b602081525f610e11602083018461162c565b5f60208284031215611679575f80fd5b5035919050565b80356001600160a01b0381168114611696575f80fd5b919050565b5f80604083850312156116ac575f80fd5b6116b583611680565b946020939093013593505050565b5f805f606084860312156116d5575f80fd5b6116de84611680565b92506116ec60208501611680565b9150604084013590509250925092565b5f6020828403121561170c575f80fd5b610e1182611680565b5f8060408385031215611726575f80fd5b61172f83611680565b915060208301358015158114611743575f80fd5b809150509250929050565b634e487b7160e01b5f52604160045260245ffd5b5f67ffffffffffffffff8084111561177c5761177c61174e565b604051601f8501601f19908116603f011681019082821181831017156117a4576117a461174e565b816040528093508581528686860111156117bc575f80fd5b858560208301375f602087830101525050509392505050565b5f805f80608085870312156117e8575f80fd5b6117f185611680565b93506117ff60208601611680565b925060408501359150606085013567ffffffffffffffff811115611821575f80fd5b8501601f81018713611831575f80fd5b61184087823560208401611762565b91505092959194509250565b5f806040838503121561185d575f80fd5b61186683611680565b915061187460208401611680565b90509250929050565b5f806040838503121561188e575f80fd5b61189783611680565b9150602083013567ffffffffffffffff8111156118b2575f80fd5b8301601f810185136118c2575f80fd5b6118d185823560208401611762565b9150509250929050565b600181811c908216806118ef57607f821691505b60208210810361190d57634e487b7160e01b5f52602260045260245ffd5b50919050565b6020808252602d908201527f4552433732313a2063616c6c6572206973206e6f7420746f6b656e206f776e6560408201526c1c881bdc88185c1c1c9bdd9959609a1b606082015260800190565b5f835161197181846020880161160a565b83519083019061198581836020880161160a565b01949350505050565b607b60f81b81527f226e616d65223a20224e4d4220457468657265756d20417267656e74696e612060018201526d0c8cc811dc9859999a5d1a5cc88b60921b60218201527308985d5d1a1bdc888e88088c1e1cdc1a58d9488b60621b602f8201526d113232b9b1b934b83a34b7b7111d60911b60438201527f22506172612063656c656272617220457468657265756d20417267656e74696e60518201527f61203230323320792070726f6d6f63696f6e617220737520636f6c65636369c360718201527fb36e204e465420323320646961732073696e206c617661726d652c204e6f204d60918201527f65204261c3b16f2067726166697465c3b3206c61732062696c6c65746572617360b18201527f206465203233206173697374656e74657361206c6120636f6e666572656e636960d18201526218488b60ea1b60f18201527f22696d616765223a2022697066733a2f2f6261666b7265696763686f6265626160f48201527f336a776a7761796f666f6173726b37696972736c6f727971626a74756e7272776101148201526d1d5958d99a0d19199bde98cd088b60921b6101348201527f2265787465726e616c5f6c696e6b223a202268747470733a2f2f6f70656e73656101428201527f612e696f2f65732f636f6c6c656374696f6e2f6d6f736b61732d323338227d006101628201525f61018182016102c9565b7f646174613a6170706c69636174696f6e2f6a736f6e3b6261736536342c00000081525f8251611bc581601d85016020870161160a565b91909101601d0192915050565b60208082526025908201527f4552433732313a207472616e736665722066726f6d20696e636f72726563742060408201526437bbb732b960d91b606082015260800190565b60208082526032908201527f4552433732313a207472616e7366657220746f206e6f6e20455243373231526560408201527131b2b4bb32b91034b6b83632b6b2b73a32b960711b606082015260800190565b634e487b7160e01b5f52601160045260245ffd5b808201808211156102c9576102c9611c69565b5f82611caa57634e487b7160e01b5f52601260045260245ffd5b500490565b80820281158282048414176102c9576102c9611c69565b601f821115610497575f81815260208120601f850160051c81016020861015611cec5750805b601f850160051c820191505b81811015611d0b57828155600101611cf8565b505050505050565b815167ffffffffffffffff811115611d2d57611d2d61174e565b611d4181611d3b84546118db565b84611cc6565b602080601f831160018114611d74575f8415611d5d5750858301515b5f19600386901b1c1916600185901b178555611d0b565b5f85815260208120601f198616915b82811015611da257888601518255948401946001909101908401611d83565b5085821015611dbf57878501515f19600388901b60f8161c191681555b5050505050600190811b01905550565b6001600160a01b03858116825284166020820152604081018390526080606082018190525f90611e019083018461162c565b9695505050505050565b5f60208284031215611e1b575f80fd5b8151610e11816115da56fe4142434445464748494a4b4c4d4e4f505152535455565758595a6162636465666768696a6b6c6d6e6f707172737475767778797a303132333435363738392b2fa264697066735822122012855afa835db76de2252b83526e973e9a277a976697c241697d386328dd6b2364736f6c634300081400334e4d4220457468657265756d20417267656e74696e6120323320477261666669746973",
  "devdoc": {
    "events": {
      "Approval(address,address,uint256)": {
        "details": "Emitted when `owner` enables `approved` to manage the `tokenId` token."
      },
      "ApprovalForAll(address,address,bool)": {
        "details": "Emitted when `owner` enables or disables (`approved`) `operator` to manage all of its assets."
      },
      "BatchMetadataUpdate(uint256,uint256)": {
        "details": "This event emits when the metadata of a range of tokens is changed. So that the third-party platforms such as NFT market could timely update the images and related attributes of the NFTs."
      },
      "MetadataUpdate(uint256)": {
        "details": "This event emits when the metadata of a token is changed. So that the third-party platforms such as NFT market could timely update the images and related attributes of the NFT."
      },
      "Transfer(address,address,uint256)": {
        "details": "Emitted when `tokenId` token is transferred from `from` to `to`."
      }
    },
    "kind": "dev",
    "methods": {
      "approve(address,uint256)": {
        "details": "See {IERC721-approve}."
      },
      "balanceOf(address)": {
        "details": "See {IERC721-balanceOf}."
      },
      "getApproved(uint256)": {
        "details": "See {IERC721-getApproved}."
      },
      "isApprovedForAll(address,address)": {
        "details": "See {IERC721-isApprovedForAll}."
      },
      "name()": {
        "details": "See {IERC721Metadata-name}."
      },
      "owner()": {
        "details": "Returns the address of the current owner."
      },
      "ownerOf(uint256)": {
        "details": "See {IERC721-ownerOf}."
      },
      "renounceOwnership()": {
        "details": "Leaves the contract without owner. It will not be possible to call `onlyOwner` functions. Can only be called by the current owner. NOTE: Renouncing ownership will leave the contract without an owner, thereby disabling any functionality that is only available to the owner."
      },
      "safeTransferFrom(address,address,uint256)": {
        "details": "See {IERC721-safeTransferFrom}."
      },
      "safeTransferFrom(address,address,uint256,bytes)": {
        "details": "See {IERC721-safeTransferFrom}."
      },
      "setApprovalForAll(address,bool)": {
        "details": "See {IERC721-setApprovalForAll}."
      },
      "supportsInterface(bytes4)": {
        "details": "See {IERC165-supportsInterface}"
      },
      "symbol()": {
        "details": "See {IERC721Metadata-symbol}."
      },
      "tokenURI(uint256)": {
        "details": "See {IERC721Metadata-tokenURI}."
      },
      "transferFrom(address,address,uint256)": {
        "details": "See {IERC721-transferFrom}."
      },
      "transferOwnership(address)": {
        "details": "Transfers ownership of the contract to a new account (`newOwner`). Can only be called by the current owner."
      }
    },
    "version": 1
  },
  "userdoc": {
    "kind": "user",
    "methods": {
      "constructor": {
        "notice": "On contract creation, assign authorship via an ENS name hash,      set the ENS reverse registrar name for this contract."
      },
      "contractURI()": {
        "notice": "Get contract-level information, formatted as a dataURI containing a      JSON object with the contract name, author, description, and      collection image."
      },
      "paint(address,string)": {
        "notice": "\"Mint\" graffiti token to a given address using its tokenUri."
      },
      "remove(uint256)": {
        "notice": "Remove graffiti token from wallet by burning it."
      }
    },
    "version": 1
  },
  "storageLayout": {
    "storage": [
      {
        "astId": 166,
        "contract": "contracts/Graffiti.sol:Graffiti",
        "label": "_name",
        "offset": 0,
        "slot": "0",
        "type": "t_string_storage"
      },
      {
        "astId": 168,
        "contract": "contracts/Graffiti.sol:Graffiti",
        "label": "_symbol",
        "offset": 0,
        "slot": "1",
        "type": "t_string_storage"
      },
      {
        "astId": 172,
        "contract": "contracts/Graffiti.sol:Graffiti",
        "label": "_owners",
        "offset": 0,
        "slot": "2",
        "type": "t_mapping(t_uint256,t_address)"
      },
      {
        "astId": 176,
        "contract": "contracts/Graffiti.sol:Graffiti",
        "label": "_balances",
        "offset": 0,
        "slot": "3",
        "type": "t_mapping(t_address,t_uint256)"
      },
      {
        "astId": 180,
        "contract": "contracts/Graffiti.sol:Graffiti",
        "label": "_tokenApprovals",
        "offset": 0,
        "slot": "4",
        "type": "t_mapping(t_uint256,t_address)"
      },
      {
        "astId": 186,
        "contract": "contracts/Graffiti.sol:Graffiti",
        "label": "_operatorApprovals",
        "offset": 0,
        "slot": "5",
        "type": "t_mapping(t_address,t_mapping(t_address,t_bool))"
      },
      {
        "astId": 1217,
        "contract": "contracts/Graffiti.sol:Graffiti",
        "label": "_tokenURIs",
        "offset": 0,
        "slot": "6",
        "type": "t_mapping(t_uint256,t_string_storage)"
      },
      {
        "astId": 7,
        "contract": "contracts/Graffiti.sol:Graffiti",
        "label": "_owner",
        "offset": 0,
        "slot": "7",
        "type": "t_address"
      },
      {
        "astId": 3120,
        "contract": "contracts/Graffiti.sol:Graffiti",
        "label": "_tokenIdCounter",
        "offset": 0,
        "slot": "8",
        "type": "t_struct(Counter)1789_storage"
      }
    ],
    "types": {
      "t_address": {
        "encoding": "inplace",
        "label": "address",
        "numberOfBytes": "20"
      },
      "t_bool": {
        "encoding": "inplace",
        "label": "bool",
        "numberOfBytes": "1"
      },
      "t_mapping(t_address,t_bool)": {
        "encoding": "mapping",
        "key": "t_address",
        "label": "mapping(address => bool)",
        "numberOfBytes": "32",
        "value": "t_bool"
      },
      "t_mapping(t_address,t_mapping(t_address,t_bool))": {
        "encoding": "mapping",
        "key": "t_address",
        "label": "mapping(address => mapping(address => bool))",
        "numberOfBytes": "32",
        "value": "t_mapping(t_address,t_bool)"
      },
      "t_mapping(t_address,t_uint256)": {
        "encoding": "mapping",
        "key": "t_address",
        "label": "mapping(address => uint256)",
        "numberOfBytes": "32",
        "value": "t_uint256"
      },
      "t_mapping(t_uint256,t_address)": {
        "encoding": "mapping",
        "key": "t_uint256",
        "label": "mapping(uint256 => address)",
        "numberOfBytes": "32",
        "value": "t_address"
      },
      "t_mapping(t_uint256,t_string_storage)": {
        "encoding": "mapping",
        "key": "t_uint256",
        "label": "mapping(uint256 => string)",
        "numberOfBytes": "32",
        "value": "t_string_storage"
      },
      "t_string_storage": {
        "encoding": "bytes",
        "label": "string",
        "numberOfBytes": "32"
      },
      "t_struct(Counter)1789_storage": {
        "encoding": "inplace",
        "label": "struct Counters.Counter",
        "members": [
          {
            "astId": 1788,
            "contract": "contracts/Graffiti.sol:Graffiti",
            "label": "_value",
            "offset": 0,
            "slot": "0",
            "type": "t_uint256"
          }
        ],
        "numberOfBytes": "32"
      },
      "t_uint256": {
        "encoding": "inplace",
        "label": "uint256",
        "numberOfBytes": "32"
      }
    }
  }
}