{
  "address": "0xa67fA2102b2CA0A24A6a6654c7f270E9D7491a68",
  "abi": [
    {
      "inputs": [],
      "stateMutability": "nonpayable",
      "type": "constructor"
    },
    {
      "anonymous": false,
      "inputs": [
        {
          "indexed": true,
          "internalType": "address",
          "name": "owner",
          "type": "address"
        },
        {
          "indexed": true,
          "internalType": "address",
          "name": "approved",
          "type": "address"
        },
        {
          "indexed": true,
          "internalType": "uint256",
          "name": "tokenId",
          "type": "uint256"
        }
      ],
      "name": "Approval",
      "type": "event"
    },
    {
      "anonymous": false,
      "inputs": [
        {
          "indexed": true,
          "internalType": "address",
          "name": "owner",
          "type": "address"
        },
        {
          "indexed": true,
          "internalType": "address",
          "name": "operator",
          "type": "address"
        },
        {
          "indexed": false,
          "internalType": "bool",
          "name": "approved",
          "type": "bool"
        }
      ],
      "name": "ApprovalForAll",
      "type": "event"
    },
    {
      "anonymous": false,
      "inputs": [
        {
          "indexed": false,
          "internalType": "uint256",
          "name": "_fromTokenId",
          "type": "uint256"
        },
        {
          "indexed": false,
          "internalType": "uint256",
          "name": "_toTokenId",
          "type": "uint256"
        }
      ],
      "name": "BatchMetadataUpdate",
      "type": "event"
    },
    {
      "anonymous": false,
      "inputs": [
        {
          "indexed": false,
          "internalType": "uint256",
          "name": "_tokenId",
          "type": "uint256"
        }
      ],
      "name": "MetadataUpdate",
      "type": "event"
    },
    {
      "anonymous": false,
      "inputs": [
        {
          "indexed": true,
          "internalType": "address",
          "name": "previousOwner",
          "type": "address"
        },
        {
          "indexed": true,
          "internalType": "address",
          "name": "newOwner",
          "type": "address"
        }
      ],
      "name": "OwnershipTransferred",
      "type": "event"
    },
    {
      "anonymous": false,
      "inputs": [
        {
          "indexed": true,
          "internalType": "address",
          "name": "from",
          "type": "address"
        },
        {
          "indexed": true,
          "internalType": "address",
          "name": "to",
          "type": "address"
        },
        {
          "indexed": true,
          "internalType": "uint256",
          "name": "tokenId",
          "type": "uint256"
        }
      ],
      "name": "Transfer",
      "type": "event"
    },
    {
      "inputs": [
        {
          "internalType": "address",
          "name": "to",
          "type": "address"
        },
        {
          "internalType": "uint256",
          "name": "tokenId",
          "type": "uint256"
        }
      ],
      "name": "approve",
      "outputs": [],
      "stateMutability": "nonpayable",
      "type": "function"
    },
    {
      "inputs": [
        {
          "internalType": "address",
          "name": "owner",
          "type": "address"
        }
      ],
      "name": "balanceOf",
      "outputs": [
        {
          "internalType": "uint256",
          "name": "",
          "type": "uint256"
        }
      ],
      "stateMutability": "view",
      "type": "function"
    },
    {
      "inputs": [],
      "name": "contractURI",
      "outputs": [
        {
          "internalType": "string",
          "name": "",
          "type": "string"
        }
      ],
      "stateMutability": "pure",
      "type": "function"
    },
    {
      "inputs": [
        {
          "internalType": "uint256",
          "name": "tokenId",
          "type": "uint256"
        }
      ],
      "name": "getApproved",
      "outputs": [
        {
          "internalType": "address",
          "name": "",
          "type": "address"
        }
      ],
      "stateMutability": "view",
      "type": "function"
    },
    {
      "inputs": [
        {
          "internalType": "address",
          "name": "owner",
          "type": "address"
        },
        {
          "internalType": "address",
          "name": "operator",
          "type": "address"
        }
      ],
      "name": "isApprovedForAll",
      "outputs": [
        {
          "internalType": "bool",
          "name": "",
          "type": "bool"
        }
      ],
      "stateMutability": "view",
      "type": "function"
    },
    {
      "inputs": [],
      "name": "name",
      "outputs": [
        {
          "internalType": "string",
          "name": "",
          "type": "string"
        }
      ],
      "stateMutability": "view",
      "type": "function"
    },
    {
      "inputs": [],
      "name": "owner",
      "outputs": [
        {
          "internalType": "address",
          "name": "",
          "type": "address"
        }
      ],
      "stateMutability": "view",
      "type": "function"
    },
    {
      "inputs": [
        {
          "internalType": "uint256",
          "name": "tokenId",
          "type": "uint256"
        }
      ],
      "name": "ownerOf",
      "outputs": [
        {
          "internalType": "address",
          "name": "",
          "type": "address"
        }
      ],
      "stateMutability": "view",
      "type": "function"
    },
    {
      "inputs": [
        {
          "internalType": "address",
          "name": "to",
          "type": "address"
        },
        {
          "internalType": "string",
          "name": "tokenUri",
          "type": "string"
        }
      ],
      "name": "paint",
      "outputs": [],
      "stateMutability": "nonpayable",
      "type": "function"
    },
    {
      "inputs": [
        {
          "internalType": "uint256",
          "name": "tokenId",
          "type": "uint256"
        }
      ],
      "name": "remove",
      "outputs": [],
      "stateMutability": "nonpayable",
      "type": "function"
    },
    {
      "inputs": [],
      "name": "renounceOwnership",
      "outputs": [],
      "stateMutability": "nonpayable",
      "type": "function"
    },
    {
      "inputs": [
        {
          "internalType": "address",
          "name": "from",
          "type": "address"
        },
        {
          "internalType": "address",
          "name": "to",
          "type": "address"
        },
        {
          "internalType": "uint256",
          "name": "tokenId",
          "type": "uint256"
        }
      ],
      "name": "safeTransferFrom",
      "outputs": [],
      "stateMutability": "nonpayable",
      "type": "function"
    },
    {
      "inputs": [
        {
          "internalType": "address",
          "name": "from",
          "type": "address"
        },
        {
          "internalType": "address",
          "name": "to",
          "type": "address"
        },
        {
          "internalType": "uint256",
          "name": "tokenId",
          "type": "uint256"
        },
        {
          "internalType": "bytes",
          "name": "data",
          "type": "bytes"
        }
      ],
      "name": "safeTransferFrom",
      "outputs": [],
      "stateMutability": "nonpayable",
      "type": "function"
    },
    {
      "inputs": [
        {
          "internalType": "address",
          "name": "operator",
          "type": "address"
        },
        {
          "internalType": "bool",
          "name": "approved",
          "type": "bool"
        }
      ],
      "name": "setApprovalForAll",
      "outputs": [],
      "stateMutability": "nonpayable",
      "type": "function"
    },
    {
      "inputs": [
        {
          "internalType": "bytes4",
          "name": "interfaceId",
          "type": "bytes4"
        }
      ],
      "name": "supportsInterface",
      "outputs": [
        {
          "internalType": "bool",
          "name": "",
          "type": "bool"
        }
      ],
      "stateMutability": "view",
      "type": "function"
    },
    {
      "inputs": [],
      "name": "symbol",
      "outputs": [
        {
          "internalType": "string",
          "name": "",
          "type": "string"
        }
      ],
      "stateMutability": "view",
      "type": "function"
    },
    {
      "inputs": [
        {
          "internalType": "uint256",
          "name": "tokenId",
          "type": "uint256"
        }
      ],
      "name": "tokenURI",
      "outputs": [
        {
          "internalType": "string",
          "name": "",
          "type": "string"
        }
      ],
      "stateMutability": "view",
      "type": "function"
    },
    {
      "inputs": [
        {
          "internalType": "address",
          "name": "from",
          "type": "address"
        },
        {
          "internalType": "address",
          "name": "to",
          "type": "address"
        },
        {
          "internalType": "uint256",
          "name": "tokenId",
          "type": "uint256"
        }
      ],
      "name": "transferFrom",
      "outputs": [],
      "stateMutability": "nonpayable",
      "type": "function"
    },
    {
      "inputs": [
        {
          "internalType": "address",
          "name": "newOwner",
          "type": "address"
        }
      ],
      "name": "transferOwnership",
      "outputs": [],
      "stateMutability": "nonpayable",
      "type": "function"
    }
  ],
  "transactionHash": "0xf4ce8cf5fa194c7a9d940e20e9e64c16614c5ef8e0f84d232a00cce2b3d56632",
  "args": [],
  "numDeployments": 1,
  "solcInputHash": "6c6eafd63090acd9b754cab7b99df9d1",
  "bytecode": "0x608060405234801562000010575f80fd5b5060405180606001604052806023815260200162001f1a602391396040805180820190915260058152644e4d42323360d81b60208201525f6200005483826200017b565b5060016200006382826200017b565b505050620000806200007a6200008660201b60201c565b6200008a565b62000243565b3390565b600780546001600160a01b038381166001600160a01b0319831681179093556040519116919082907f8be0079c531659141344cd1fd0a4f28419497f9722a3daafe3b4186f6b6457e0905f90a35050565b634e487b7160e01b5f52604160045260245ffd5b600181811c908216806200010457607f821691505b6020821081036200012357634e487b7160e01b5f52602260045260245ffd5b50919050565b601f82111562000176575f81815260208120601f850160051c81016020861015620001515750805b601f850160051c820191505b8181101562000172578281556001016200015d565b5050505b505050565b81516001600160401b03811115620001975762000197620000db565b620001af81620001a88454620000ef565b8462000129565b602080601f831160018114620001e5575f8415620001cd5750858301515b5f19600386901b1c1916600185901b17855562000172565b5f85815260208120601f198616915b828110156200021557888601518255948401946001909101908401620001f4565b50858210156200023357878501515f19600388901b60f8161c191681555b5050505050600190811b01905550565b611cc980620002515f395ff3fe608060405234801561000f575f80fd5b506004361061011c575f3560e01c8063715018a6116100a9578063c87b56dd1161006e578063c87b56dd14610251578063e8a3d48514610264578063e985e9c51461026c578063f2fde38b146102a7578063f807d10d146102ba575f80fd5b8063715018a61461020a5780638da5cb5b1461021257806395d89b4114610223578063a22cb4651461022b578063b88d4fde1461023e575f80fd5b806323b872dd116100ef57806323b872dd1461019d57806342842e0e146101b05780634cc82215146101c35780636352211e146101d657806370a08231146101e9575f80fd5b806301ffc9a71461012057806306fdde0314610148578063081812fc1461015d578063095ea7b314610188575b5f80fd5b61013361012e3660046114c2565b6102cd565b60405190151581526020015b60405180910390f35b6101506102f7565b60405161013f919061152a565b61017061016b36600461153c565b610386565b6040516001600160a01b03909116815260200161013f565b61019b61019636600461156e565b6103ab565b005b61019b6101ab366004611596565b6104c4565b61019b6101be366004611596565b6104f5565b61019b6101d136600461153c565b61050f565b6101706101e436600461153c565b610586565b6101fc6101f73660046115cf565b6105e5565b60405190815260200161013f565b61019b610669565b6007546001600160a01b0316610170565b61015061067c565b61019b6102393660046115e8565b61068b565b61019b61024c3660046116a8565b61069a565b61015061025f36600461153c565b6106d2565b6101506107dc565b61013361027a36600461171f565b6001600160a01b039182165f90815260056020908152604080832093909416825291909152205460ff1690565b61019b6102b53660046115cf565b610801565b61019b6102c8366004611750565b610877565b5f6001600160e01b03198216632483248360e11b14806102f157506102f1826108f0565b92915050565b60605f8054610305906117ae565b80601f0160208091040260200160405190810160405280929190818152602001828054610331906117ae565b801561037c5780601f106103535761010080835404028352916020019161037c565b820191905f5260205f20905b81548152906001019060200180831161035f57829003601f168201915b5050505050905090565b5f6103908261093f565b505f908152600460205260409020546001600160a01b031690565b5f6103b582610586565b9050806001600160a01b0316836001600160a01b0316036104275760405162461bcd60e51b815260206004820152602160248201527f4552433732313a20617070726f76616c20746f2063757272656e74206f776e656044820152603960f91b60648201526084015b60405180910390fd5b336001600160a01b03821614806104435750610443813361027a565b6104b55760405162461bcd60e51b815260206004820152603d60248201527f4552433732313a20617070726f76652063616c6c6572206973206e6f7420746f60448201527f6b656e206f776e6572206f7220617070726f76656420666f7220616c6c000000606482015260840161041e565b6104bf838361099d565b505050565b6104ce3382610a0a565b6104ea5760405162461bcd60e51b815260040161041e906117e6565b6104bf838383610a86565b6104bf83838360405180602001604052805f81525061069a565b3361051982610586565b6001600160a01b03161461057a5760405162461bcd60e51b815260206004820152602260248201527f4f6e6c7920746865206f776e65722063616e2072656d6f766520677261666669604482015261746960f01b606482015260840161041e565b61058381610bf5565b50565b5f818152600260205260408120546001600160a01b0316806102f15760405162461bcd60e51b8152602060048201526018602482015277115490cdcc8c4e881a5b9d985b1a59081d1bdad95b88125160421b604482015260640161041e565b5f6001600160a01b03821661064e5760405162461bcd60e51b815260206004820152602960248201527f4552433732313a2061646472657373207a65726f206973206e6f7420612076616044820152683634b21037bbb732b960b91b606482015260840161041e565b506001600160a01b03165f9081526003602052604090205490565b610671610c33565b61067a5f610c8d565b565b606060018054610305906117ae565b610696338383610cde565b5050565b6106a43383610a0a565b6106c05760405162461bcd60e51b815260040161041e906117e6565b6106cc84848484610dab565b50505050565b60606106dd8261093f565b5f82815260066020526040812080546106f5906117ae565b80601f0160208091040260200160405190810160405280929190818152602001828054610721906117ae565b801561076c5780601f106107435761010080835404028352916020019161076c565b820191905f5260205f20905b81548152906001019060200180831161074f57829003601f168201915b505050505090505f61078860408051602081019091525f815290565b905080515f03610799575092915050565b8151156107cb5780826040516020016107b3929190611833565b60405160208183030381529060405292505050919050565b6107d484610dde565b949350505050565b60606040516020016107ed90611861565b604051602081830303815290604052905090565b610809610c33565b6001600160a01b03811661086e5760405162461bcd60e51b815260206004820152602660248201527f4f776e61626c653a206e6577206f776e657220697320746865207a65726f206160448201526564647265737360d01b606482015260840161041e565b61058381610c8d565b61087f610c33565b5f61088960085490565b9050601781106108ce5760405162461bcd60e51b815260206004820152601060248201526f14985b881bdd5d081bd9881c185a5b9d60821b604482015260640161041e565b6108dc600880546001019055565b6108e68382610e4e565b6104bf8183610e67565b5f6001600160e01b031982166380ac58cd60e01b148061092057506001600160e01b03198216635b5e139f60e01b145b806102f157506301ffc9a760e01b6001600160e01b03198316146102f1565b5f818152600260205260409020546001600160a01b03166105835760405162461bcd60e51b8152602060048201526018602482015277115490cdcc8c4e881a5b9d985b1a59081d1bdad95b88125160421b604482015260640161041e565b5f81815260046020526040902080546001600160a01b0319166001600160a01b03841690811790915581906109d182610586565b6001600160a01b03167f8c5be1e5ebec7d5bd14f71427d1e84f3dd0314c0f7b2291e5b200ac8c7c3b92560405160405180910390a45050565b5f80610a1583610586565b9050806001600160a01b0316846001600160a01b03161480610a5b57506001600160a01b038082165f9081526005602090815260408083209388168352929052205460ff165b806107d45750836001600160a01b0316610a7484610386565b6001600160a01b031614949350505050565b826001600160a01b0316610a9982610586565b6001600160a01b031614610abf5760405162461bcd60e51b815260040161041e90611a9c565b6001600160a01b038216610b215760405162461bcd60e51b8152602060048201526024808201527f4552433732313a207472616e7366657220746f20746865207a65726f206164646044820152637265737360e01b606482015260840161041e565b610b2e8383836001610f30565b826001600160a01b0316610b4182610586565b6001600160a01b031614610b675760405162461bcd60e51b815260040161041e90611a9c565b5f81815260046020908152604080832080546001600160a01b03199081169091556001600160a01b038781168086526003855283862080545f1901905590871680865283862080546001019055868652600290945282852080549092168417909155905184937fddf252ad1be2c89b69c2b068fc378daa952ba7f163c4a11628f55a4df523b3ef91a4505050565b610bfe81610f99565b5f8181526006602052604090208054610c16906117ae565b159050610583575f81815260066020526040812061058391611463565b6007546001600160a01b0316331461067a5760405162461bcd60e51b815260206004820181905260248201527f4f776e61626c653a2063616c6c6572206973206e6f7420746865206f776e6572604482015260640161041e565b600780546001600160a01b038381166001600160a01b0319831681179093556040519116919082907f8be0079c531659141344cd1fd0a4f28419497f9722a3daafe3b4186f6b6457e0905f90a35050565b816001600160a01b0316836001600160a01b031603610d3f5760405162461bcd60e51b815260206004820152601960248201527f4552433732313a20617070726f766520746f2063616c6c657200000000000000604482015260640161041e565b6001600160a01b038381165f81815260056020908152604080832094871680845294825291829020805460ff191686151590811790915591519182527f17307eab39ab6107e8899845ad3d59bd9653f200f220920489ca2b5937696c31910160405180910390a3505050565b610db6848484610a86565b610dc284848484611038565b6106cc5760405162461bcd60e51b815260040161041e90611ae1565b6060610de98261093f565b5f610dfe60408051602081019091525f815290565b90505f815111610e1c5760405180602001604052805f815250610e47565b80610e2684611135565b604051602001610e37929190611833565b6040516020818303038152906040525b9392505050565b610696828260405180602001604052805f8152506111c5565b5f828152600260205260409020546001600160a01b0316610ee15760405162461bcd60e51b815260206004820152602e60248201527f45524337323155524953746f726167653a2055524920736574206f66206e6f6e60448201526d32bc34b9ba32b73a103a37b5b2b760911b606482015260840161041e565b5f828152600660205260409020610ef88282611b80565b506040518281527ff8e1a15aba9398e019f0b49df1a4fde98ee17ae345cb5f6b5e2c27f5033e8ce79060200160405180910390a15050565b6001600160a01b0384161580610f4d57506001600160a01b038316155b6106cc5760405162461bcd60e51b815260206004820152601d60248201527f4772616666697469206973206e6f6e2d7472616e736665727261626c65000000604482015260640161041e565b5f610fa382610586565b9050610fb2815f846001610f30565b610fbb82610586565b5f83815260046020908152604080832080546001600160a01b03199081169091556001600160a01b0385168085526003845282852080545f190190558785526002909352818420805490911690555192935084927fddf252ad1be2c89b69c2b068fc378daa952ba7f163c4a11628f55a4df523b3ef908390a45050565b5f6001600160a01b0384163b1561112a57604051630a85bd0160e11b81526001600160a01b0385169063150b7a029061107b903390899088908890600401611c3c565b6020604051808303815f875af19250505080156110b5575060408051601f3d908101601f191682019092526110b291810190611c78565b60015b611110573d8080156110e2576040519150601f19603f3d011682016040523d82523d5f602084013e6110e7565b606091505b5080515f036111085760405162461bcd60e51b815260040161041e90611ae1565b805181602001fd5b6001600160e01b031916630a85bd0160e11b1490506107d4565b506001949350505050565b60605f611141836111f7565b60010190505f8167ffffffffffffffff81111561116057611160611621565b6040519080825280601f01601f19166020018201604052801561118a576020820181803683370190505b5090508181016020015b5f19016f181899199a1a9b1b9c1cb0b131b232b360811b600a86061a8153600a850494508461119457509392505050565b6111cf83836112ce565b6111db5f848484611038565b6104bf5760405162461bcd60e51b815260040161041e90611ae1565b5f8072184f03e93ff9f4daa797ed6e38ed64bf6a1f0160401b83106112355772184f03e93ff9f4daa797ed6e38ed64bf6a1f0160401b830492506040015b6d04ee2d6d415b85acef81000000008310611261576d04ee2d6d415b85acef8100000000830492506020015b662386f26fc10000831061127f57662386f26fc10000830492506010015b6305f5e1008310611297576305f5e100830492506008015b61271083106112ab57612710830492506004015b606483106112bd576064830492506002015b600a83106102f15760010192915050565b6001600160a01b0382166113245760405162461bcd60e51b815260206004820181905260248201527f4552433732313a206d696e7420746f20746865207a65726f2061646472657373604482015260640161041e565b5f818152600260205260409020546001600160a01b0316156113885760405162461bcd60e51b815260206004820152601c60248201527f4552433732313a20746f6b656e20616c7265616479206d696e74656400000000604482015260640161041e565b6113955f83836001610f30565b5f818152600260205260409020546001600160a01b0316156113f95760405162461bcd60e51b815260206004820152601c60248201527f4552433732313a20746f6b656e20616c7265616479206d696e74656400000000604482015260640161041e565b6001600160a01b0382165f81815260036020908152604080832080546001019055848352600290915280822080546001600160a01b0319168417905551839291907fddf252ad1be2c89b69c2b068fc378daa952ba7f163c4a11628f55a4df523b3ef908290a45050565b50805461146f906117ae565b5f825580601f1061147e575050565b601f0160209004905f5260205f209081019061058391905b808211156114a9575f8155600101611496565b5090565b6001600160e01b031981168114610583575f80fd5b5f602082840312156114d2575f80fd5b8135610e47816114ad565b5f5b838110156114f75781810151838201526020016114df565b50505f910152565b5f81518084526115168160208601602086016114dd565b601f01601f19169290920160200192915050565b602081525f610e4760208301846114ff565b5f6020828403121561154c575f80fd5b5035919050565b80356001600160a01b0381168114611569575f80fd5b919050565b5f806040838503121561157f575f80fd5b61158883611553565b946020939093013593505050565b5f805f606084860312156115a8575f80fd5b6115b184611553565b92506115bf60208501611553565b9150604084013590509250925092565b5f602082840312156115df575f80fd5b610e4782611553565b5f80604083850312156115f9575f80fd5b61160283611553565b915060208301358015158114611616575f80fd5b809150509250929050565b634e487b7160e01b5f52604160045260245ffd5b5f67ffffffffffffffff8084111561164f5761164f611621565b604051601f8501601f19908116603f0116810190828211818310171561167757611677611621565b8160405280935085815286868601111561168f575f80fd5b858560208301375f602087830101525050509392505050565b5f805f80608085870312156116bb575f80fd5b6116c485611553565b93506116d260208601611553565b925060408501359150606085013567ffffffffffffffff8111156116f4575f80fd5b8501601f81018713611704575f80fd5b61171387823560208401611635565b91505092959194509250565b5f8060408385031215611730575f80fd5b61173983611553565b915061174760208401611553565b90509250929050565b5f8060408385031215611761575f80fd5b61176a83611553565b9150602083013567ffffffffffffffff811115611785575f80fd5b8301601f81018513611795575f80fd5b6117a485823560208401611635565b9150509250929050565b600181811c908216806117c257607f821691505b6020821081036117e057634e487b7160e01b5f52602260045260245ffd5b50919050565b6020808252602d908201527f4552433732313a2063616c6c6572206973206e6f7420746f6b656e206f776e6560408201526c1c881bdc88185c1c1c9bdd9959609a1b606082015260800190565b5f83516118448184602088016114dd565b8351908301906118588183602088016114dd565b01949350505050565b7f646174613a6170706c69636174696f6e2f6a736f6e3b757466382c00000000008152607b60f81b601b8201527f226e616d65223a20224e4d4220457468657265756d20417267656e74696e6120601c8201526d0c8cc811dc9859999a5d1a5cc88b60921b603c8201527f22617574686f72223a20226a7573742d627569646c2d6974222c000000000000604a8201526d113232b9b1b934b83a34b7b7111d60911b60648201527f22506172612063656c6562726172206574682061726720323032332079206c6160728201527f20637265616369c3b36e206465206c6120636f6c65636369c3b36e206e66747360928201527f20e2809c32332064c3ad61732073696e206c617661726d65e2809d204c61732060b28201527f6d6f7363617320656e7375636961726f6e2032332062696c6c6574657261732060d28201527f7061727469636970616e746573206465206c6120636f6e666572656e6369612e60f28201526c08139350880f0f880c8cce088b609a1b6101128201527f22696d616765223a2022697066733a2f2f6261666b7265696763686f6265626161011f8201527f336a776a7761796f666f6173726b37696972736c6f727971626a74756e72727761013f8201526d1d5958d99a0d19199bde98cd088b60921b61015f8201527f2265787465726e616c5f6c696e6b223a202268747470733a2f2f6f70656e736561016d8201527f612e696f2f65732f636f6c6c656374696f6e2f6d6f736b61732d323338227d0061018d8201525f6101ac82016102f1565b60208082526025908201527f4552433732313a207472616e736665722066726f6d20696e636f72726563742060408201526437bbb732b960d91b606082015260800190565b60208082526032908201527f4552433732313a207472616e7366657220746f206e6f6e20455243373231526560408201527131b2b4bb32b91034b6b83632b6b2b73a32b960711b606082015260800190565b601f8211156104bf575f81815260208120601f850160051c81016020861015611b595750805b601f850160051c820191505b81811015611b7857828155600101611b65565b505050505050565b815167ffffffffffffffff811115611b9a57611b9a611621565b611bae81611ba884546117ae565b84611b33565b602080601f831160018114611be1575f8415611bca5750858301515b5f19600386901b1c1916600185901b178555611b78565b5f85815260208120601f198616915b82811015611c0f57888601518255948401946001909101908401611bf0565b5085821015611c2c57878501515f19600388901b60f8161c191681555b5050505050600190811b01905550565b6001600160a01b03858116825284166020820152604081018390526080606082018190525f90611c6e908301846114ff565b9695505050505050565b5f60208284031215611c88575f80fd5b8151610e47816114ad56fea2646970667358221220106d05e7ab96f608f6075eeaec76b92a58fc4e8ee0faae2ea734afed2c8539b264736f6c634300081400334e4d4220457468657265756d20417267656e74696e6120323320477261666669746973",
  "devdoc": {
    "events": {
      "Approval(address,address,uint256)": {
        "details": "Emitted when `owner` enables `approved` to manage the `tokenId` token."
      },
      "ApprovalForAll(address,address,bool)": {
        "details": "Emitted when `owner` enables or disables (`approved`) `operator` to manage all of its assets."
      },
      "BatchMetadataUpdate(uint256,uint256)": {
        "details": "This event emits when the metadata of a range of tokens is changed. So that the third-party platforms such as NFT market could timely update the images and related attributes of the NFTs."
      },
      "MetadataUpdate(uint256)": {
        "details": "This event emits when the metadata of a token is changed. So that the third-party platforms such as NFT market could timely update the images and related attributes of the NFT."
      },
      "Transfer(address,address,uint256)": {
        "details": "Emitted when `tokenId` token is transferred from `from` to `to`."
      }
    },
    "kind": "dev",
    "methods": {
      "approve(address,uint256)": {
        "details": "See {IERC721-approve}."
      },
      "balanceOf(address)": {
        "details": "See {IERC721-balanceOf}."
      },
      "getApproved(uint256)": {
        "details": "See {IERC721-getApproved}."
      },
      "isApprovedForAll(address,address)": {
        "details": "See {IERC721-isApprovedForAll}."
      },
      "name()": {
        "details": "See {IERC721Metadata-name}."
      },
      "owner()": {
        "details": "Returns the address of the current owner."
      },
      "ownerOf(uint256)": {
        "details": "See {IERC721-ownerOf}."
      },
      "renounceOwnership()": {
        "details": "Leaves the contract without owner. It will not be possible to call `onlyOwner` functions. Can only be called by the current owner. NOTE: Renouncing ownership will leave the contract without an owner, thereby disabling any functionality that is only available to the owner."
      },
      "safeTransferFrom(address,address,uint256)": {
        "details": "See {IERC721-safeTransferFrom}."
      },
      "safeTransferFrom(address,address,uint256,bytes)": {
        "details": "See {IERC721-safeTransferFrom}."
      },
      "setApprovalForAll(address,bool)": {
        "details": "See {IERC721-setApprovalForAll}."
      },
      "supportsInterface(bytes4)": {
        "details": "See {IERC165-supportsInterface}"
      },
      "symbol()": {
        "details": "See {IERC721Metadata-symbol}."
      },
      "tokenURI(uint256)": {
        "details": "See {IERC721Metadata-tokenURI}."
      },
      "transferFrom(address,address,uint256)": {
        "details": "See {IERC721-transferFrom}."
      },
      "transferOwnership(address)": {
        "details": "Transfers ownership of the contract to a new account (`newOwner`). Can only be called by the current owner."
      }
    },
    "version": 1
  },
  "userdoc": {
    "kind": "user",
    "methods": {
      "constructor": {
        "notice": "Constructor"
      },
      "contractURI()": {
        "notice": "Get contract-level information, formatted as a dataURI containing a      JSON object with the contract name, author, description, and      collection image."
      },
      "paint(address,string)": {
        "notice": "\"Mint\" graffiti token to a given address using its tokenUri."
      },
      "remove(uint256)": {
        "notice": "Remove graffiti token from wallet by burning it."
      }
    },
    "version": 1
  },
  "storageLayout": {
    "storage": [
      {
        "astId": 166,
        "contract": "contracts/Graffiti.sol:Graffiti",
        "label": "_name",
        "offset": 0,
        "slot": "0",
        "type": "t_string_storage"
      },
      {
        "astId": 168,
        "contract": "contracts/Graffiti.sol:Graffiti",
        "label": "_symbol",
        "offset": 0,
        "slot": "1",
        "type": "t_string_storage"
      },
      {
        "astId": 172,
        "contract": "contracts/Graffiti.sol:Graffiti",
        "label": "_owners",
        "offset": 0,
        "slot": "2",
        "type": "t_mapping(t_uint256,t_address)"
      },
      {
        "astId": 176,
        "contract": "contracts/Graffiti.sol:Graffiti",
        "label": "_balances",
        "offset": 0,
        "slot": "3",
        "type": "t_mapping(t_address,t_uint256)"
      },
      {
        "astId": 180,
        "contract": "contracts/Graffiti.sol:Graffiti",
        "label": "_tokenApprovals",
        "offset": 0,
        "slot": "4",
        "type": "t_mapping(t_uint256,t_address)"
      },
      {
        "astId": 186,
        "contract": "contracts/Graffiti.sol:Graffiti",
        "label": "_operatorApprovals",
        "offset": 0,
        "slot": "5",
        "type": "t_mapping(t_address,t_mapping(t_address,t_bool))"
      },
      {
        "astId": 1217,
        "contract": "contracts/Graffiti.sol:Graffiti",
        "label": "_tokenURIs",
        "offset": 0,
        "slot": "6",
        "type": "t_mapping(t_uint256,t_string_storage)"
      },
      {
        "astId": 7,
        "contract": "contracts/Graffiti.sol:Graffiti",
        "label": "_owner",
        "offset": 0,
        "slot": "7",
        "type": "t_address"
      },
      {
        "astId": 3071,
        "contract": "contracts/Graffiti.sol:Graffiti",
        "label": "_tokenIdCounter",
        "offset": 0,
        "slot": "8",
        "type": "t_struct(Counter)1742_storage"
      }
    ],
    "types": {
      "t_address": {
        "encoding": "inplace",
        "label": "address",
        "numberOfBytes": "20"
      },
      "t_bool": {
        "encoding": "inplace",
        "label": "bool",
        "numberOfBytes": "1"
      },
      "t_mapping(t_address,t_bool)": {
        "encoding": "mapping",
        "key": "t_address",
        "label": "mapping(address => bool)",
        "numberOfBytes": "32",
        "value": "t_bool"
      },
      "t_mapping(t_address,t_mapping(t_address,t_bool))": {
        "encoding": "mapping",
        "key": "t_address",
        "label": "mapping(address => mapping(address => bool))",
        "numberOfBytes": "32",
        "value": "t_mapping(t_address,t_bool)"
      },
      "t_mapping(t_address,t_uint256)": {
        "encoding": "mapping",
        "key": "t_address",
        "label": "mapping(address => uint256)",
        "numberOfBytes": "32",
        "value": "t_uint256"
      },
      "t_mapping(t_uint256,t_address)": {
        "encoding": "mapping",
        "key": "t_uint256",
        "label": "mapping(uint256 => address)",
        "numberOfBytes": "32",
        "value": "t_address"
      },
      "t_mapping(t_uint256,t_string_storage)": {
        "encoding": "mapping",
        "key": "t_uint256",
        "label": "mapping(uint256 => string)",
        "numberOfBytes": "32",
        "value": "t_string_storage"
      },
      "t_string_storage": {
        "encoding": "bytes",
        "label": "string",
        "numberOfBytes": "32"
      },
      "t_struct(Counter)1742_storage": {
        "encoding": "inplace",
        "label": "struct Counters.Counter",
        "members": [
          {
            "astId": 1741,
            "contract": "contracts/Graffiti.sol:Graffiti",
            "label": "_value",
            "offset": 0,
            "slot": "0",
            "type": "t_uint256"
          }
        ],
        "numberOfBytes": "32"
      },
      "t_uint256": {
        "encoding": "inplace",
        "label": "uint256",
        "numberOfBytes": "32"
      }
    }
  }
}